{
  "_format": "hh-sol-artifact-1",
  "contractName": "WavePortal",
  "sourceName": "contracts/wavePortal.sol",
  "abi": [
    {
      "inputs": [],
      "stateMutability": "payable",
      "type": "constructor"
    },
    {
      "anonymous": false,
      "inputs": [
        {
          "indexed": true,
          "internalType": "address",
          "name": "from",
          "type": "address"
        },
        {
          "indexed": false,
          "internalType": "uint256",
          "name": "timestamp",
          "type": "uint256"
        },
        {
          "indexed": false,
          "internalType": "string",
          "name": "message",
          "type": "string"
        }
      ],
      "name": "NewWave",
      "type": "event"
    },
    {
      "inputs": [],
      "name": "getTotalWaves",
      "outputs": [
        {
          "internalType": "uint256",
          "name": "",
          "type": "uint256"
        }
      ],
      "stateMutability": "view",
      "type": "function"
    },
    {
      "inputs": [],
      "name": "getWaves",
      "outputs": [
        {
          "components": [
            {
              "internalType": "address",
              "name": "waver",
              "type": "address"
            },
            {
              "internalType": "string",
              "name": "message",
              "type": "string"
            },
            {
              "internalType": "uint256",
              "name": "timestamp",
              "type": "uint256"
            }
          ],
          "internalType": "struct WavePortal.Wave[]",
          "name": "",
          "type": "tuple[]"
        }
      ],
      "stateMutability": "view",
      "type": "function"
    },
    {
      "inputs": [
        {
          "internalType": "string",
          "name": "_message",
          "type": "string"
        }
      ],
      "name": "wave",
      "outputs": [],
      "stateMutability": "nonpayable",
      "type": "function"
    },
    {
      "inputs": [
        {
          "internalType": "uint256",
          "name": "",
          "type": "uint256"
        }
      ],
      "name": "waves",
      "outputs": [
        {
          "internalType": "address",
          "name": "waver",
          "type": "address"
        },
        {
          "internalType": "string",
          "name": "message",
          "type": "string"
        },
        {
          "internalType": "uint256",
          "name": "timestamp",
          "type": "uint256"
        }
      ],
      "stateMutability": "view",
      "type": "function"
    }
  ],
  "bytecode": "0x60806040526200003360405180606001604052806023815260200162001432602391396200005b60201b620006dc1760201c565b60644442620000439190620001a8565b6200004f919062000245565b600181905550620002ec565b620000fb8160405160240162000072919062000168565b6040516020818303038152906040527f41304fac000000000000000000000000000000000000000000000000000000007bffffffffffffffffffffffffffffffffffffffffffffffffffffffff19166020820180517bffffffffffffffffffffffffffffffffffffffffffffffffffffffff8381831617835250505050620000fe60201b60201c565b50565b60008151905060006a636f6e736f6c652e6c6f679050602083016000808483855afa5050505050565b600062000134826200018c565b62000140818562000197565b9350620001528185602086016200020f565b6200015d81620002db565b840191505092915050565b6000602082019050818103600083015262000184818462000127565b905092915050565b600081519050919050565b600082825260208201905092915050565b6000620001b58262000205565b9150620001c28362000205565b9250827fffffffffffffffffffffffffffffffffffffffffffffffffffffffffffffffff03821115620001fa57620001f96200027d565b5b828201905092915050565b6000819050919050565b60005b838110156200022f57808201518184015260208101905062000212565b838111156200023f576000848401525b50505050565b6000620002528262000205565b91506200025f8362000205565b925082620002725762000271620002ac565b5b828206905092915050565b7f4e487b7100000000000000000000000000000000000000000000000000000000600052601160045260246000fd5b7f4e487b7100000000000000000000000000000000000000000000000000000000600052601260045260246000fd5b6000601f19601f8301169050919050565b61113680620002fc6000396000f3fe608060405234801561001057600080fd5b506004361061004c5760003560e01c8063449d46c0146100515780639a2cdc081461006d578063a9d42f7e1461008b578063c781267a146100a9575b600080fd5b61006b6004803603810190610066919061095a565b6100db565b005b6100756104a0565b6040516100829190610cfe565b60405180910390f35b6100936104a9565b6040516100a09190610c2a565b60405180910390f35b6100c360048036038101906100be919061099b565b6105fa565b6040516100d293929190610bec565b60405180910390f35b42601e600360003373ffffffffffffffffffffffffffffffffffffffff1673ffffffffffffffffffffffffffffffffffffffff168152602001908152602001600020546101289190610e10565b10610168576040517f08c379a000000000000000000000000000000000000000000000000000000000815260040161015f90610cbe565b60405180910390fd5b600160008082825461017a9190610e10565b925050819055506000655af3107a400090506064444261019a9190610e10565b6101a49190610f47565b6001819055506101eb6040518060400160405280601681526020017f52616e646f6d20232067656e6572617465643a20256400000000000000000000815250600154610775565b6032600154116102e65747811115610238576040517f08c379a000000000000000000000000000000000000000000000000000000000815260040161022f90610cde565b60405180910390fd5b60003373ffffffffffffffffffffffffffffffffffffffff168260405161025e90610bd7565b60006040518083038185875af1925050503d806000811461029b576040519150601f19603f3d011682016040523d82523d6000602084013e6102a0565b606091505b50509050806102e4576040517f08c379a00000000000000000000000000000000000000000000000000000000081526004016102db90610c9e565b60405180910390fd5b505b61033c6040518060400160405280600a81526020017f53656e64657220256420000000000000000000000000000000000000000000008152503373ffffffffffffffffffffffffffffffffffffffff1631610775565b600260405180606001604052803373ffffffffffffffffffffffffffffffffffffffff16815260200184815260200142815250908060018154018082558091505060019003906000526020600020906003020160009091909190915060008201518160000160006101000a81548173ffffffffffffffffffffffffffffffffffffffff021916908373ffffffffffffffffffffffffffffffffffffffff16021790555060208201518160010190805190602001906103fb92919061083a565b5060408201518160020155505042600360003373ffffffffffffffffffffffffffffffffffffffff1673ffffffffffffffffffffffffffffffffffffffff168152602001908152602001600020819055503373ffffffffffffffffffffffffffffffffffffffff167f5f7e16dc676677766a70e9c5628aa6c54ddb8b6e5188e2ae1e1f17f1ffbea7164284604051610494929190610d19565b60405180910390a25050565b60008054905090565b60606002805480602002602001604051908101604052809291908181526020016000905b828210156105f157838290600052602060002090600302016040518060600160405290816000820160009054906101000a900473ffffffffffffffffffffffffffffffffffffffff1673ffffffffffffffffffffffffffffffffffffffff1673ffffffffffffffffffffffffffffffffffffffff16815260200160018201805461055690610ee4565b80601f016020809104026020016040519081016040528092919081815260200182805461058290610ee4565b80156105cf5780601f106105a4576101008083540402835291602001916105cf565b820191906000526020600020905b8154815290600101906020018083116105b257829003601f168201915b50505050508152602001600282015481525050815260200190600101906104cd565b50505050905090565b6002818154811061060a57600080fd5b90600052602060002090600302016000915090508060000160009054906101000a900473ffffffffffffffffffffffffffffffffffffffff169080600101805461065390610ee4565b80601f016020809104026020016040519081016040528092919081815260200182805461067f90610ee4565b80156106cc5780601f106106a1576101008083540402835291602001916106cc565b820191906000526020600020905b8154815290600101906020018083116106af57829003601f168201915b5050505050908060020154905083565b610772816040516024016106f09190610c4c565b6040516020818303038152906040527f41304fac000000000000000000000000000000000000000000000000000000007bffffffffffffffffffffffffffffffffffffffffffffffffffffffff19166020820180517bffffffffffffffffffffffffffffffffffffffffffffffffffffffff8381831617835250505050610811565b50565b61080d828260405160240161078b929190610c6e565b6040516020818303038152906040527f9710a9d0000000000000000000000000000000000000000000000000000000007bffffffffffffffffffffffffffffffffffffffffffffffffffffffff19166020820180517bffffffffffffffffffffffffffffffffffffffffffffffffffffffff8381831617835250505050610811565b5050565b60008151905060006a636f6e736f6c652e6c6f679050602083016000808483855afa5050505050565b82805461084690610ee4565b90600052602060002090601f01602090048101928261086857600085556108af565b82601f1061088157805160ff19168380011785556108af565b828001600101855582156108af579182015b828111156108ae578251825591602001919060010190610893565b5b5090506108bc91906108c0565b5090565b5b808211156108d95760008160009055506001016108c1565b5090565b60006108f06108eb84610d6e565b610d49565b90508281526020810184848401111561090857600080fd5b610913848285610ea2565b509392505050565b600082601f83011261092c57600080fd5b813561093c8482602086016108dd565b91505092915050565b600081359050610954816110e9565b92915050565b60006020828403121561096c57600080fd5b600082013567ffffffffffffffff81111561098657600080fd5b6109928482850161091b565b91505092915050565b6000602082840312156109ad57600080fd5b60006109bb84828501610945565b91505092915050565b60006109d08383610b69565b905092915050565b6109e181610e66565b82525050565b6109f081610e66565b82525050565b6000610a0182610daf565b610a0b8185610dd2565b935083602082028501610a1d85610d9f565b8060005b85811015610a595784840389528151610a3a85826109c4565b9450610a4583610dc5565b925060208a01995050600181019050610a21565b50829750879550505050505092915050565b6000610a7682610dba565b610a808185610dee565b9350610a90818560208601610eb1565b610a9981611034565b840191505092915050565b6000610aaf82610dba565b610ab98185610dff565b9350610ac9818560208601610eb1565b610ad281611034565b840191505092915050565b6000610aea601883610dff565b9150610af582611045565b602082019050919050565b6000610b0d601a83610dff565b9150610b188261106e565b602082019050919050565b6000610b30604083610dff565b9150610b3b82611097565b604082019050919050565b6000610b53600083610de3565b9150610b5e826110e6565b600082019050919050565b6000606083016000830151610b8160008601826109d8565b5060208301518482036020860152610b998282610a6b565b9150506040830151610bae6040860182610bb9565b508091505092915050565b610bc281610e98565b82525050565b610bd181610e98565b82525050565b6000610be282610b46565b9150819050919050565b6000606082019050610c0160008301866109e7565b8181036020830152610c138185610aa4565b9050610c226040830184610bc8565b949350505050565b60006020820190508181036000830152610c4481846109f6565b905092915050565b60006020820190508181036000830152610c668184610aa4565b905092915050565b60006040820190508181036000830152610c888185610aa4565b9050610c976020830184610bc8565b9392505050565b60006020820190508181036000830152610cb781610add565b9050919050565b60006020820190508181036000830152610cd781610b00565b9050919050565b60006020820190508181036000830152610cf781610b23565b9050919050565b6000602082019050610d136000830184610bc8565b92915050565b6000604082019050610d2e6000830185610bc8565b8181036020830152610d408184610aa4565b90509392505050565b6000610d53610d64565b9050610d5f8282610f16565b919050565b6000604051905090565b600067ffffffffffffffff821115610d8957610d88611005565b5b610d9282611034565b9050602081019050919050565b6000819050602082019050919050565b600081519050919050565b600081519050919050565b6000602082019050919050565b600082825260208201905092915050565b600081905092915050565b600082825260208201905092915050565b600082825260208201905092915050565b6000610e1b82610e98565b9150610e2683610e98565b9250827fffffffffffffffffffffffffffffffffffffffffffffffffffffffffffffffff03821115610e5b57610e5a610f78565b5b828201905092915050565b6000610e7182610e78565b9050919050565b600073ffffffffffffffffffffffffffffffffffffffff82169050919050565b6000819050919050565b82818337600083830152505050565b60005b83811015610ecf578082015181840152602081019050610eb4565b83811115610ede576000848401525b50505050565b60006002820490506001821680610efc57607f821691505b60208210811415610f1057610f0f610fd6565b5b50919050565b610f1f82611034565b810181811067ffffffffffffffff82111715610f3e57610f3d611005565b5b80604052505050565b6000610f5282610e98565b9150610f5d83610e98565b925082610f6d57610f6c610fa7565b5b828206905092915050565b7f4e487b7100000000000000000000000000000000000000000000000000000000600052601160045260246000fd5b7f4e487b7100000000000000000000000000000000000000000000000000000000600052601260045260246000fd5b7f4e487b7100000000000000000000000000000000000000000000000000000000600052602260045260246000fd5b7f4e487b7100000000000000000000000000000000000000000000000000000000600052604160045260246000fd5b6000601f19601f8301169050919050565b7f4661696c656420746f207472616e73666572206d6f6e65790000000000000000600082015250565b7f506c65617365207761697420666f72203135206d696e75746573000000000000600082015250565b7f54686572652773206e6f206d756368206d6f6e6579206c65667420696e20746860008201527f697320636f6e74726163742c20776520617265206f7574206f662066756e6473602082015250565b50565b6110f281610e98565b81146110fd57600080fd5b5056fea26469706673582212200640d24ba02ddba790a84006b33d31a4c0d851325c56be15d2852aa2730d247e64736f6c63430008040033596f20796f2c204b686167616e20697320627265616b696e6720696e746f2077656233",
  "linkReferences": {},
  "deployedLinkReferences": {}
}